:100000000C94AC000C94D4000C94D4000C944E06C8
:100010000C9472060C9496060C94D4000C94D400A4
:100020000C94D4000C94D4000C94D4000C94D40000
:100030000C94D4000C94D4000C94D4000C94D400F0
:100040000C9428010C94D4000C943A030C946B0388
:100050000C94D4000C94D4000C94D4000C94D400D0
:100060000C94D4000C94D40000000000240027005D
:100070002A0000000000250028002B0000000000DE
:1000800023002600290004040404040404040202DA
:100090000202020203030303030301020408102007
:1000A0004080010204081020010204081020000012
:1000B0000007000201000003040600000000000029
:1000C000000000C201000100110011000C0000E15D
:1000D00000000A00250025002100009600001900FC
:1000E000390039003600127A00001F004600460031
:1000F00044008070000022004D004D004A00004B7B
:1001000000003600750075007200403800004A009B
:100110009C009C009900802500007200EC00EC001F
:10012000E900C0120000E900DA01DA01D701600934
:100130000000D701B603B603B303B0040000B30355
:100140006E076E076B072C010000DC0EC11DC11D80
:10015000BE1D1E013004230111241FBECFEFD8E0C5
:10016000DEBFCDBF11E0A0E0B1E0E4EEF0E102C0FF
:1001700005900D92AC34B107D9F712E0ACE4B1E0D0
:1001800001C01D92AC35B107E1F711E0C6E5D1E041
:1001900004C02297FE010E946108C235D107C9F749
:1001A0000E946D040C9413080C940000813091059A
:1001B00041F48CE491E062E043E020E00E94080713
:1001C0000895009721F48CE491E00E940B080895B3
:1001D000CF93DF9382E061E00E94250282E061E03C
:1001E0000E944902C9EFD1E0CE0160E071E00E94B7
:1001F000D404CE0140E855E260E070E00E94B20312
:100200008CE491E040E051EE60E070E00E94350740
:10021000DF91CF91089568EE73E080E090E00E9456
:10022000960189EF91E062E171E00E94D4048CE4D0
:1002300091E06FE171E00E94D404089581E090E0C4
:100240000E94D600089580E090E00E94D6000895B4
:100250001F920F920FB60F9211242F933F938F93FB
:100260009F93AF93BF9380916C0190916D01A0918A
:100270006E01B0916F01309170010196A11DB11D09
:10028000232F2D5F2D3720F02D570196A11DB11D75
:100290002093700180936C0190936D01A0936E0187
:1002A000B0936F018091680190916901A0916A01FA
:1002B000B0916B010196A11DB11D809368019093CF
:1002C0006901A0936A01B0936B01BF91AF919F91B7
:1002D0008F913F912F910F900FBE0F901F90189507
:1002E0009FB7F894209168013091690140916A01AB
:1002F00050916B0186B5A89B06C08F3F21F02F5F00
:100300003F4F4F4F5F4F9FBF542F432F322F222716
:10031000280F311D411D511D82E0220F331F441F44
:10032000551F8A95D1F7B901CA010895EF92FF923E
:100330000F931F93CF93DF937B018C010E94700179
:10034000EB010FC00E9470016C1B7D0B83E0683EC7
:10035000780738F00894E108F10801091109C8513B
:10036000DC4FE114F1040105110561F7DF91CF9134
:100370001F910F91FF90EF900895789484B582605B
:1003800084BD84B5816084BD85B5826085BD85B539
:10039000816085BDEEE6F0E0808181608083E1E8E8
:1003A000F0E0108280818260808380818160808320
:1003B000E0E8F0E0808181608083E1EBF0E0808123
:1003C00084608083E0EBF0E0808181608083EAE7F5
:1003D000F0E080818460808380818260808380817E
:1003E000816080838081806880831092C10008953D
:1003F000833071F0843028F48130A1F0823021F50F
:1004000014C08630B1F08730D1F08430E9F404C0F4
:10041000809180008F7703C0809180008F7D8093D2
:100420008000089584B58F7702C084B58F7D84BD28
:1004300008958091B0008F778093B00008958091E7
:10044000B0008F7D8093B000089590E0FC01E656E7
:10045000FF4F2491FC01EA57FF4FE491EE23C1F0D6
:10046000F0E0EE0FFF1FE859FF4F85919491DC01FA
:10047000662341F49FB7F8948C91209582238C9346
:100480009FBF08959FB7F8948C91822B8C939FBF48
:1004900008950F931F93DF93CF930F92CDB7DEB7DD
:1004A000282F30E0F901E255FF4F8491F901E6561B
:1004B000FF4F14912A573F4FF90104910023D9F0BF
:1004C000882321F069830E94F8016981E02FF0E020
:1004D000EE0FFF1FEE58FF4F85919491DC019FB7FF
:1004E000F894662321F48C911095812302C08C919D
:1004F000812B8C939FBF0F90CF91DF911F910F9114
:100500000895FC0184859585FC01E05CFF4F208106
:1005100031818E5B9F4FFC0180819181281B390BBB
:100520002F733070C9010895FC0184859585FC0105
:10053000E05CFF4F40815181FC01EE5BFF4F208169
:1005400031814217530741F00190F081E02DE80F0F
:10055000F91F208130E002C02FEF3FEFC90108955D
:10056000FC0184859585FC01E05CFF4F4081518151
:10057000FC01EE5BFF4F208131814217530771F080
:10058000A081B181A80FB91F2C9180819181019622
:100590008F7390709183808330E002C02FEF3FEF24
:1005A000C9010895DC011E968D919C911F97FC0155
:1005B000E05CFF4F8E5B9F4F40815181DC012D91AC
:1005C0003C91119742175307B9F708951F93FC0107
:1005D000162F26853785D901A05CBF4F8D919C9140
:1005E000019660E470E00E942A08D901AE5BBF4F1B
:1005F0004D915C91119784179507D1F3D901A05CB7
:10060000BF4F0D90BC91A02DA20FB31F1C93A685C8
:10061000B785A05CBF4F11969C938E93A689B7892E
:100620002C9181E090E0058C02C0880F991F0A94FC
:10063000E2F7282B2C9381E090E01F910895FB01B5
:10064000E05CFF4F208131812F5F3F4F2F7330706F
:10065000DB01AE5BBF4F4D915C91119724173507BD
:1006600039F0A081B181A60FB71F8C93318320830D
:10067000089508951F920F920FB60F9211242F9391
:100680003F934F935F936F937F938F939F93AF931A
:10069000BF93EF93FF938091C60061E771E00E94E2
:1006A0001F03FF91EF91BF91AF919F918F917F9128
:1006B0006F915F914F913F912F910F900FBE0F90CF
:1006C0001F90189589EF91E00E948102009711F028
:1006D0000E94390308951F920F920FB60F921124B2
:1006E0002F933F935F936F937F938F939F93AF93DA
:1006F000BF93EF93FF932091F5013091F601809124
:10070000F7019091F8012817390731F48091C10061
:100710008F7D8093C10016C0E091F701F091F80140
:10072000EB54FE4F20818091F7019091F8010196E2
:1007300060E470E00E942A089093F8018093F7012A
:100740002093C600FF91EF91BF91AF919F918F9140
:100750007F916F915F913F912F910F900FBE0F90FE
:100760001F901895DF92EF92FF920F931F93CF93F4
:10077000DF93EC017A018B01DD24D394403081EECC
:10078000580780E0680780E0780749F4DD24EC89A9
:10079000FD89108260E874E88EE190E00FC0EC897A
:1007A000FD8981E090E00E8C02C0880F991F0A94A9
:1007B000E2F7808360E079E08DE390E0A8019701A3
:1007C0000E943D082150304040405040569547958A
:1007D0003795279580E12030380710F0DD20B1F6FD
:1007E000E889F9893083EA89FB892083EE89FF89CA
:1007F000408181E090E09C010A8C02C0220F331FEF
:100800000A94E2F7422B4083EE89FF8940819C01E4
:100810000B8C02C0220F331F0A94E2F7422B408355
:10082000EE89FF8940819C010C8C02C0220F331F8E
:100830000A94E2F7422B4083EE89FF8920810D8CD8
:1008400002C0880F991F0A94E2F780958223808363
:10085000DF91CF911F910F91FF90EF90DF9008955E
:100860001092FC011092FB0188EE93E0A0E0B0E052
:100870008093FD019093FE01A093FF01B0930002CD
:10088000EBEFF1E08FE291E09293829381E791E0C8
:100890009587848785EB91E09787868785EC90E044
:1008A000918B808B84EC90E0938B828B80EC90E03A
:1008B000958B848B81EC90E0978B868B86EC90E017
:1008C000918F808F84E0828F83E0838F87E0848F95
:1008D00085E0858F81E0868F0895CF93DF930E9416
:1008E000BD010E94E800C2E6D3E00E940B01209700
:1008F000E1F30E946203F9CFCF92DF92EF92FF9271
:100900000F931F93CF93DF936C017B018A01C0E0AB
:10091000D0E00FC0D7016D917D01D601ED91FC9122
:100920000190F081E02DC6010995C80FD91F015033
:1009300010400115110571F7CE01DF91CF911F9184
:100940000F91FF90EF90DF90CF900895DB010D9015
:100950000020E9F7AD0141505040461B570BDC0128
:10096000ED91FC910280F381E02D09950895DC0161
:10097000ED91FC910190F081E02D099508950F9380
:100980001F93CF93DF93EC016DE00E94B7048C01BD
:10099000CE016AE00E94B704080F191FC801DF9159
:1009A000CF911F910F9108950F931F93CF93DF93D2
:1009B000EC010E94A6048C01CE010E94BF04080F26
:1009C000191FC801DF91CF911F910F9108952091B8
:1009D00018023091190228173907B1F490915B027F
:1009E00080915A02981781F0E0915B02F0E0E65E98
:1009F000FD4F208180915B0290E001968F73907093
:100A000080935B0230E002C02FEF3FEFC9010895F1
:100A100020911802309119022817390779F4809132
:100A20005A0220915B0290E0805C9F4F821B9109EB
:100A300060E470E00E942A089C0102C020E030E0DF
:100A4000C901089520911802309119022817390719
:100A500049F48FB7F89410925A0290915A029093E9
:100A60005B028FBF08952091180230911902281758
:100A7000390781F490915B0280915A02981751F0E6
:100A8000E0915B02F0E0E65EFD4F2081332727FD19
:100A9000309502C02FEF3FEFC901089520E0019784
:100AA0002FEF8F3F9207D9F70895FC01809118022C
:100AB000909119028E179F0791F0838D8E7F838FFF
:100AC0008FB7F89410925A0290915A0290935B0259
:100AD000F0931902E09318028FBF81E0089580E03F
:100AE0000895EF92FF920F931F93CF93DF93EC0142
:100AF0008B8DEE85FF859D8581FF04C080818923D4
:100B000029F445C08081892309F041C08B899C89E3
:100B10000E944E0508E010E0EE24E394FF248D8946
:100B20009E890E944E05EE85FF8580819D858923E3
:100B300011F0FE2803C08E2D8095F822EE0C015096
:100B4000104069F78F89988D0E944E058B8D81FD2D
:100B5000F09480915A0220915B0290E001968F738D
:100B6000907030E08217930779F0E0915A02F0E03C
:100B7000E65EFD4FF08280915A0290E001968F73FD
:100B8000907080935A0203C08B8D81608B8FDF91B0
:100B9000CF911F910F91FF90EF900895FC01A189D3
:100BA000B2899089662329F42C91892F809582231C
:100BB00002C08C91892B8C930895DF92EF92FF9263
:100BC0000F931F93CF93DF93EC01E62E898D9A8DBF
:100BD000009739F481E090E09B838A8320E030E045
:100BE0004BC0DFB6F8948B8D61E081FF60E0CE01F1
:100BF0000E94CE05898D9A8D05960E944E058B8D9B
:100C000081FF19C008E010E0FF24F3948F2D8E219E
:100C100019F0CE0160E002C0CE0161E00E94CE0575
:100C2000898D9A8D0E944E05FF0C0150104071F77E
:100C3000CE0160E018C008E010E0FF24F3948F2D8F
:100C40008E2119F0CE0161E002C0CE0160E00E9469
:100C5000CE05898D9A8D0E944E05FF0C01501040E3
:100C600071F7CE0161E00E94CE05DFBE898D9A8DBD
:100C70000E944E0521E030E0C901DF91CF911F9124
:100C80000F91FF90EF90DF9008958091180290915E
:100C90001902009711F00E94710508951F920F929A
:100CA0000FB60F9211242F933F934F935F936F933F
:100CB0007F938F939F93AF93BF93EF93FF930E9484
:100CC0004506FF91EF91BF91AF919F918F917F91D9
:100CD0006F915F914F913F912F910F900FBE0F90A9
:100CE0001F9018951F920F920FB60F9211242F93F9
:100CF0003F934F935F936F937F938F939F93AF93A4
:100D0000BF93EF93FF930E944506FF91EF91BF9130
:100D1000AF919F918F917F916F915F914F913F9193
:100D20002F910F900FBE0F901F9018951F920F924A
:100D30000FB60F9211242F933F934F935F936F93AE
:100D40007F938F939F93AF93BF93EF93FF930E94F3
:100D50004506FF91EF91BF91AF919F918F917F9148
:100D60006F915F914F913F912F910F900FBE0F9018
:100D70001F9018951F93CF93DF93EC01162F862FAA
:100D800061E00E942502812F61E00E944902812FCB
:100D900090E0FC01E656FF4FE491E88BFC01EA5736
:100DA000FF4FE491F0E0EE0FFF1FEE58FF4F8591EB
:100DB0009491898B9A8BDF91CF911F9108951F9306
:100DC000CF93DF93EC01162F862F60E00E9425025F
:100DD0008B8D81FD04C0812F61E00E9449021C8738
:100DE000812F90E0FC01E656FF4FE491ED87FC0176
:100DF000EA57FF4FE491F0E0EE0FFF1FE458FF4F7A
:100E0000859194918E879F87DF91CF911F9108954F
:100E10001F93CF93DF93EC01162F1B821A8288EE6B
:100E200093E0A0E0B0E08C839D83AE83BF838FE32B
:100E300091E0998388831C8A1B8A1E8A1D8A188EDA
:100E40001F8A1A8E198E8B8D2170220F8C7F822B18
:100E50008B8FCE01642F0E94BA06CE01612F0E94B3
:100E6000DF06DF91CF911F910895EF92FF920F93CC
:100E70001F93CF93DF93EC017A018B011A8E198EA9
:100E8000188E1F8A1E8A1D8A1C8A1B8A40E050E029
:100E90009A01220F331F240F351F220F331F220FF9
:100EA000331FF901EE53FF4F85919591A591B491B0
:100EB0008E159F05A007B107E9F4F901EA53FF4F2A
:100EC000859194918B8B9C8BF901E853FF4F859111
:100ED00094918D8B9E8BF901E653FF4F85919491F0
:100EE0008F8B988F24533F4FF90185919491898F6F
:100EF0009A8F06C04F5F5F4F4C30510509F0C8CF45
:100F00008F89988D009709F448C09C85963108F028
:100F100040C020916800983020F09E3020F082E0A0
:100F200003C084E001C081E0822B809368004C857F
:100F3000483048F04E3060F04631C8F1A0E0B0E0F3
:100F4000E0E0F0E009C0ADE6B0E0EDE6F0E004C0BE
:100F5000ABE6B0E0EBE6F0E05081483040F481E0F1
:100F600090E002C0880F991F4A95E2F710C0242F25
:100F700030E04E3018F42850304002C02E5030403F
:100F800081E090E002C0880F991F2A95E2F7852B37
:100F90008C93898D9A8D0E944E05CE010E94550535
:100FA000DF91CF911F910F91FF90EF900895ACE6E4
:100FB000B0E0ECE6F0E0D0CFFC014485463150F5DE
:100FC000483028F04E3030F0ECE6F0E005C0EDE6B9
:100FD000F0E002C0EBE6F0E05081483040F481E000
:100FE00090E002C0880F991F4A95E2F710C0242FA5
:100FF00030E04E3018F42850304002C02E503040BF
:1010000081E090E002C0880F991F2A95E2F7809551
:101010008523808308952FE331E0FC013183208311
:101020000E94DC070895F8940C946508AA1BBB1B6A
:1010300051E107C0AA1FBB1FA617B70710F0A61BD8
:10104000B70B881F991F5A95A9F780959095BC01F9
:10105000CD01089597FB092E07260AD077FD04D00D
:10106000E5DF06D000201AF4709561957F4F089552
:10107000F6F7909581959F4F0895A1E21A2EAA1B2D
:10108000BB1BFD010DC0AA1FBB1FEE1FFF1FA21738
:10109000B307E407F50720F0A21BB30BE40BF50B35
:1010A000661F771F881F991F1A9469F760957095BE
:1010B000809590959B01AC01BD01CF010895EE0F85
:1010C000FF1F0590F491E02D099411E0C6E5D1E0F1
:1010D00004C0FE010E9461082296C835D107C9F7F5
:0410E000F894FFCFB2
:1010E40053657474696E6720736C656570204F4630
:1010F400460048656C6C6F204D6F6E6B65790048D7
:10110400656C6C6F20576F726C640000000000E621
:10111400027C048102B0029402D20200000000DDCD
:0C112400057C040805E7043305220500E3
:00000001FF
