:100000000C94AC000C94D4000C94D4000C94050512
:100010000C9429050C944D050C94D4000C94D40038
:100020000C94D4000C94D4000C94D4000C94D40000
:100030000C94D4000C94D4000C94D4000C94D400F0
:100040000C94CA060C94D4000C94F1010C94220276
:100050000C94D4000C94D4000C94D4000C94D400D0
:100060000C94D4000C94D40000C2010001001100D3
:1000700011000C0000E100000A002500250021000D
:10008000009600001900390039003600127A00008D
:100090001F004600460044008070000022004D0012
:1000A0004D004A00004B00003600750075007200DC
:1000B000403800004A009C009C0099008025000008
:1000C0007200EC00EC00E900C0120000E900DA0167
:1000D000DA01D70160090000D701B603B603B30304
:1000E000B0040000B3036E076E076B072C0100001D
:1000F000DC0EC11DC11DBE1D000000002400270034
:100100002A0000000000250028002B00000000004D
:100110002300260029000404040404040404020249
:100120000202020203030303030301020408102076
:100130004080010204081020010204081020000081
:100140000007000201000003040600000000000098
:1001500000002E01E702330111241FBECFEFD8E0CB
:10016000DEBFCDBF11E0A0E0B1E0EAE6F0E102C001
:1001700005900D92A234B107D9F712E0A2E4B1E0E4
:1001800001C01D92A335B107E1F711E0C6E5D1E04A
:1001900004C02297FE010E942408C235D107C9F786
:1001A0000E9424030C94D6070C9400008130910522
:1001B00041F483E491E062E043E020E00E94BF0567
:1001C0000895009721F483E491E00E94C206089507
:1001D000CF93DF93C7EED1E0CE0140E855E260E077
:1001E00070E00E94690283E491E040E855E260E03B
:1001F00070E00E94EC05CE0160E071E00E948B038C
:10020000DF91CF91089583E491E00E94BF03181617
:1002100019065CF483E491E00E949E03682F8093AA
:10022000420187EE91E00E946E0387EE91E00E940A
:100230003801181619068CF487EE91E00E946701C8
:10024000682F8093420187EE91E00E946E0383E461
:1002500091E0609142010E946E03089581E090E078
:100260000E94D600089580E090E00E94D600089594
:10027000FC0184859585FC01E05CFF4F2081318184
:100280008E5B9F4FFC0180819181281B390B2F735E
:100290003070C9010895FC0184859585FC01E05CFE
:1002A000FF4F40815181FC01EE5BFF4F2081318186
:1002B0004217530741F00190F081E02DE80FF91F3C
:1002C000208130E002C02FEF3FEFC9010895FC010B
:1002D00084859585FC01E05CFF4F40815181FC01E4
:1002E000EE5BFF4F208131814217530771F0A081EF
:1002F000B181A80FB91F2C918081918101968F73D4
:1003000090709183808330E002C02FEF3FEFC901EE
:100310000895DC011E968D919C911F97FC01E05C75
:10032000FF4F8E5B9F4F40815181DC012D913C91AD
:10033000119742175307B9F708951F93FC01162F21
:1003400026853785D901A05CBF4F8D919C91019680
:1003500060E470E00E94ED07D901AE5BBF4F4D91A4
:100360005C91119784179507D1F3D901A05CBF4F19
:100370000D90BC91A02DA20FB31F1C93A685B7852D
:10038000A05CBF4F11969C938E93A689B7892C9140
:1003900081E090E0058C02C0880F991F0A94E2F773
:1003A000282B2C9381E090E01F910895FB01E05CE5
:1003B000FF4F208131812F5F3F4F2F733070DB0162
:1003C000AE5BBF4F4D915C9111972417350739F003
:1003D000A081B181A60FB71F8C933183208308952C
:1003E00008951F920F920FB60F9211242F933F93EF
:1003F0004F935F936F937F938F939F93AF93BF932D
:10040000EF93FF938091C6006FE571E00E94D601E3
:10041000FF91EF91BF91AF919F918F917F916F91DC
:100420005F914F913F912F910F900FBE0F901F90B2
:10043000189587EE91E00E943801009711F00E9414
:10044000F00108951F920F920FB60F9211242F936F
:100450003F935F936F937F938F939F93AF93BF93DC
:10046000EF93FF932091E3013091E4018091E50146
:100470009091E6012817390731F48091C1008F7DF2
:100480008093C10016C0E091E501F091E601ED55C1
:10049000FE4F20818091E5019091E601019660E494
:1004A00070E00E94ED079093E6018093E5012093B0
:1004B000C600FF91EF91BF91AF919F918F917F9176
:1004C0006F915F913F912F910F900FBE0F901F90F2
:1004D0001895DF92EF92FF920F931F93CF93DF93C4
:1004E000EC017A018B01DD24D394403081EE580772
:1004F00080E0680780E0780749F4DD24EC89FD8915
:10050000108260E874E88EE190E00FC0EC89FD890C
:1005100081E090E00E8C02C0880F991F0A94E2F7E8
:10052000808360E079E08DE390E0A80197010E946C
:10053000000821503040404050405695479537952F
:10054000279580E12030380710F0DD20B1F6E889EA
:10055000F9893083EA89FB892083EE89FF8940810C
:1005600081E090E09C010A8C02C0220F331F0A94A4
:10057000E2F7422B4083EE89FF8940819C010B8C7E
:1005800002C0220F331F0A94E2F7422B4083EE8908
:10059000FF8940819C010C8C02C0220F331F0A94FA
:1005A000E2F7422B4083EE89FF8920810D8C02C047
:1005B000880F991F0A94E2F7809582238083DF9148
:1005C000CF911F910F91FF90EF90DF9008951092BF
:1005D000EA011092E90188EE93E0A0E0B0E0809398
:1005E000EB019093EC01A093ED01B093EE01E9EEE5
:1005F000F1E086E291E0929382938FE591E0958716
:10060000848783EA91E09787868785EC90E0918BD9
:10061000808B84EC90E0938B828B80EC90E0958BC8
:10062000848B81EC90E0978B868B86EC90E0918FA9
:10063000808F84E0828F83E0838F87E0848F85E0E2
:10064000858F81E0868F0895CF93DF930E941207F4
:100650000E94E800C9E1D2E00E9403012097E1F383
:100660000E941902F9CFCF92DF92EF92FF920F937F
:100670001F93CF93DF936C017B018A01C0E0D0E030
:100680000FC0D7016D917D01D601ED91FC910190D4
:10069000F081E02DC6010995C80FD91F0150104007
:1006A0000115110571F7CE01DF91CF911F910F91C7
:1006B000FF90EF90DF90CF900895DB010D90002028
:1006C000E9F7AD0141505040461B570BDC01ED915D
:1006D000FC910280F381E02D09950895DC01ED91F4
:1006E000FC910190F081E02D099508950F931F93DF
:1006F000CF93DF93EC016DE00E946E038C01CE017D
:100700006AE00E946E03080F191FC801DF91CF91A4
:100710001F910F9108950F931F93CF93DF93EC01D7
:100720000E945D038C01CE010E947603080F191F01
:10073000C801DF91CF911F910F910895209106027A
:100740003091070228173907B1F49091490280913E
:100750004802981781F0E0914902F0E0E85FFD4F10
:1007600020818091490290E001968F739070809370
:10077000490230E002C02FEF3FEFC90108952091F8
:100780000602309107022817390779F48091480250
:100790002091490290E0805C9F4F821B910960E4A8
:1007A00070E00E94ED079C0102C020E030E0C9012A
:1007B000089520910602309107022817390749F45D
:1007C0008FB7F89410924802909148029093490292
:1007D0008FBF08952091060230910702281739072C
:1007E00081F49091490280914802981751F0E0916C
:1007F0004902F0E0E85FFD4F2081332727FD309567
:1008000002C02FEF3FEFC901089520E001972FEFBD
:100810008F3F9207D9F70895FC01809106029091CD
:1008200007028E179F0791F0838D8E7F838F8FB77E
:10083000F894109248029091480290934902F093E4
:100840000702E09306028FBF81E0089580E00895DB
:10085000EF92FF920F931F93CF93DF93EC018B8D59
:10086000EE85FF859D8581FF04C08081892329F461
:1008700045C08081892309F041C08B899C890E94F1
:10088000050408E010E0EE24E394FF248D899E899E
:100890000E940504EE85FF8580819D85892311F0E6
:1008A000FE2803C08E2D8095F822EE0C01501040DA
:1008B00069F78F89988D0E9405048B8D81FDF094D6
:1008C000809148022091490290E001968F739070C8
:1008D00030E08217930779F0E0914802F0E0E85F9A
:1008E000FD4FF0828091480290E001968F739070E6
:1008F0008093480203C08B8D81608B8FDF91CF91F5
:100900001F910F91FF90EF900895FC01A189B2898A
:100910009089662329F42C91892F8095822302C027
:100920008C91892B8C930895DF92EF92FF920F9315
:100930001F93CF93DF93EC01E62E898D9A8D00975C
:1009400039F481E090E09B838A8320E030E04BC063
:10095000DFB6F8948B8D61E081FF60E0CE010E94EC
:100960008504898D9A8D05960E9405048B8D81FFE3
:1009700019C008E010E0FF24F3948F2D8E2119F0A8
:10098000CE0160E002C0CE0161E00E948504898D45
:100990009A8D0E940504FF0C0150104071F7CE01A2
:1009A00060E018C008E010E0FF24F3948F2D8E2142
:1009B00019F0CE0161E002C0CE0160E00E94850422
:1009C000898D9A8D0E940504FF0C0150104071F72B
:1009D000CE0161E00E948504DFBE898D9A8D0E9460
:1009E000050421E030E0C901DF91CF911F910F9103
:1009F000FF90EF90DF90089580910602909107029A
:100A0000009711F00E94280408951F920F920FB6CC
:100A10000F9211242F933F934F935F936F937F9384
:100A20008F939F93AF93BF93EF93FF930E94FC0428
:100A3000FF91EF91BF91AF919F918F917F916F91B6
:100A40005F914F913F912F910F900FBE0F901F908C
:100A500018951F920F920FB60F9211242F933F9368
:100A60004F935F936F937F938F939F93AF93BF93B6
:100A7000EF93FF930E94FC04FF91EF91BF91AF9120
:100A80009F918F917F916F915F914F913F912F91A6
:100A90000F900FBE0F901F9018951F920F920FB6D8
:100AA0000F9211242F933F934F935F936F937F93F4
:100AB0008F939F93AF93BF93EF93FF930E94FC0498
:100AC000FF91EF91BF91AF919F918F917F916F9126
:100AD0005F914F913F912F910F900FBE0F901F90FC
:100AE00018951F93CF93DF93EC01162F862F61E0AB
:100AF0000E947A07812F61E00E949E07812F90E07B
:100B0000FC01E65DFE4FE491E88BFC01EA5EFE4FDE
:100B1000E491F0E0EE0FFF1FEE5FFE4F85919491A0
:100B2000898B9A8BDF91CF911F9108951F93CF935B
:100B3000DF93EC01162F862F60E00E947A078B8DE1
:100B400081FD04C0812F61E00E949E071C87812FD8
:100B500090E0FC01E65DFE4FE491ED87FC01EA5E6A
:100B6000FE4FE491F0E0EE0FFF1FE45FFE4F859132
:100B700094918E879F87DF91CF911F9108951F9346
:100B8000CF93DF93EC01162F1B821A8288EE93E03D
:100B9000A0E0B0E08C839D83AE83BF8386E391E0C9
:100BA000998388831C8A1B8A1E8A1D8A188E1F8A35
:100BB0001A8E198E8B8D2170220F8C7F822B8B8F3A
:100BC000CE01642F0E947105CE01612F0E9496050F
:100BD000DF91CF911F910895EF92FF920F931F9392
:100BE000CF93DF93EC017A018B011A8E198E188E48
:100BF0001F8A1E8A1D8A1C8A1B8A40E050E09A01C7
:100C0000220F331F240F351F220F331F220F331FD4
:100C1000F901E859FF4F85919591A591B4918E15F1
:100C20009F05A007B107E9F4F901E459FF4F859149
:100C300094918B8B9C8BF901E259FF4F8591949194
:100C40008D8B9E8BF901E059FF4F859194918F8B8D
:100C5000988F2E583F4FF90185919491898F9A8FE3
:100C600006C04F5F5F4F4C30510509F0C8CF8F89E8
:100C7000988D009709F448C09C85963108F040C0D3
:100C800020916800983020F09E3020F082E003C070
:100C900084E001C081E0822B809368004C8548305D
:100CA00048F04E3060F04631C8F1A0E0B0E0E0E03E
:100CB000F0E009C0ADE6B0E0EDE6F0E004C0ABE680
:100CC000B0E0EBE6F0E05081483040F481E090E0A5
:100CD00002C0880F991F4A95E2F710C0242F30E018
:100CE0004E3018F42850304002C02E50304081E081
:100CF00090E002C0880F991F2A95E2F7852B8C930C
:100D0000898D9A8D0E940504CE010E940C04DF910A
:100D1000CF911F910F91FF90EF900895ACE6B0E056
:100D2000ECE6F0E0D0CFFC014485463150F5483088
:100D300028F04E3030F0ECE6F0E005C0EDE6F0E0F3
:100D400002C0EBE6F0E05081483040F481E090E0F2
:100D500002C0880F991F4A95E2F710C0242F30E097
:100D60004E3018F42850304002C02E50304081E000
:100D700090E002C0880F991F2A95E2F7809585239D
:100D80008083089526E331E0FC01318320830E94B3
:100D9000930608951F920F920FB60F9211242F936E
:100DA0003F938F939F93AF93BF9380914E02909107
:100DB0004F02A0915002B09151023091520201961F
:100DC000A11DB11D232F2D5F2D3720F02D5701962A
:100DD000A11DB11D2093520280934E0290934F02A9
:100DE000A0935002B093510280914A0290914B021D
:100DF000A0914C02B0914D020196A11DB11D8093AE
:100E00004A0290934B02A0934C02B0934D02BF91C3
:100E1000AF919F918F913F912F910F900FBE0F90A7
:100E20001F901895789484B5826084BD84B58160E4
:100E300084BD85B5826085BD85B5816085BDEEE6E2
:100E4000F0E0808181608083E1E8F0E010828081C1
:100E500082608083808181608083E0E8F0E080812F
:100E600081608083E1EBF0E0808184608083E0EB4F
:100E7000F0E0808181608083EAE7F0E08081846037
:100E80008083808182608083808181608083808193
:100E9000806880831092C1000895833071F084309F
:100EA00028F48130A1F0823021F514C08630B1F0F1
:100EB0008730D1F08430E9F404C0809180008F77CE
:100EC00003C0809180008F7D80938000089584B559
:100ED0008F7702C084B58F7D84BD08958091B00066
:100EE0008F778093B00008958091B0008F7D8093BC
:100EF000B000089590E0FC01E65DFE4F2491FC01F6
:100F0000EA5EFE4FE491EE23C1F0F0E0EE0FFF1F2A
:100F1000E850FF4F85919491DC01662341F49FB71F
:100F2000F8948C91209582238C939FBF08959FB74E
:100F3000F8948C91822B8C939FBF08950F931F93ED
:100F4000DF93CF930F92CDB7DEB7282F30E0F901B2
:100F5000E25CFE4F8491F901E65DFE4F14912A5E3A
:100F60003E4FF90104910023D9F0882321F06983D1
:100F70000E944D076981E02FF0E0EE0FFF1FEE5F4A
:100F8000FE4F85919491DC019FB7F894662321F47C
:100F90008C911095812302C08C91812B8C939FBFE3
:100FA0000F90CF91DF911F910F910895F8940C94B9
:100FB0002808AA1BBB1B51E107C0AA1FBB1FA6170D
:100FC000B70710F0A61BB70B881F991F5A95A9F7F2
:100FD00080959095BC01CD01089597FB092E0726B9
:100FE0000AD077FD04D0E5DF06D000201AF4709512
:100FF00061957F4F0895F6F7909581959F4F0895DD
:10100000A1E21A2EAA1BBB1BFD010DC0AA1FBB1F0C
:10101000EE1FFF1FA217B307E407F50720F0A21B7E
:10102000B30BE40BF50B661F771F881F991F1A94EB
:1010300069F760957095809590959B01AC01BD0115
:10104000CF010895EE0FFF1F0590F491E02D099454
:1010500011E0C6E5D1E004C0FE010E9424082296FA
:0A106000C835D107C9F7F894FFCF97
:10106A005374617274696E6720534D353130304262
:10107A0020436F6D6D756E69636174696F6E2E2E94
:10108A002E00000000009D013303380167014B0167
:10109A0089010000000094043303BF039E03EA039E
:0210AA00D90368
:00000001FF
