:100000000C94AC000C94D4000C94D4000C941607FF
:100010000C943A070C945E070C94D4000C94D40012
:100020000C94D4000C94D4000C94D4000C94D40000
:100030000C94D4000C94D4000C94D4000C94D400F0
:100040000C94C3010C94D4000C94FF030C94300462
:100050000C94D4000C94D4000C94D4000C94D400D0
:100060000C94D4000C94D40000000000240027005D
:100070002A0000000000250028002B0000000000DE
:1000800023002600290004040404040404040202DA
:100090000202020203030303030301020408102007
:1000A0004080010204081020010204081020000012
:1000B0000007000201000003040600000000000029
:1000C000000000C201000100110011000C0000E15D
:1000D00000000A00250025002100009600001900FC
:1000E000390039003600127A00001F004600460031
:1000F00044008070000022004D004D004A00004B7B
:1001000000003600750075007200403800004A009B
:100110009C009C009900802500007200EC00EC001F
:10012000E900C0120000E900DA01DA01D701600934
:100130000000D701B603B603B303B0040000B30355
:100140006E076E076B072C010000DC0EC11DC11D80
:10015000BE1DB901F504BE0111241FBECFEFD8E0CA
:10016000DEBFCDBF11E0A0E0B1E0E4E7F2E102C004
:1001700005900D92AE3FB107D9F713E0AEEFB1E0B5
:1001800001C01D92AE30B107E1F711E0C6E5D1E044
:1001900004C02297FE010E942909C235D107C9F780
:1001A0000E9432050C94DB080C940000813091050C
:1001B00041F48EEF91E062E043E020E00E94D0073E
:1001C0000895009721F48EEF91E00E94D3080895DE
:1001D000CF93DF93CBEAD2E0CE0140E855E260E076
:1001E00070E00E9477048EEF91E040E855E260E015
:1001F00070E00E94FD078AE060E00E94C0028BE090
:1002000060E00E94C0028CE060E00E94C0028DE0CD
:1002100061E00E94C002CE0160E071E00E949C0596
:1002200068EB78E880E090E00E943102DF91CF91A6
:100230000895CF93DF938DE061E00E94E402CEEF5A
:10024000D1E0CE0162E271E00E949C05CE016CE239
:1002500071E00E947C05CE0162E20E94A506CE01FB
:1002600062ED71E00E947C05CE0162E20E94A5066B
:10027000CE0165E371E00E949C0564EF71E080E0CF
:1002800090E00E943102DF91CF910895CF93DF93E8
:10029000CEEFD1E0CE016AE10E94A506CE0165E372
:1002A00071E00E949C0568E97AE380E090E00E949A
:1002B00031028DE060E00E94E402DF91CF91089569
:1002C000EF92FF920F931F93CF93DF938AE00E94E8
:1002D0001C037C018BE00E941C038C018CE00E94BB
:1002E0001C03EC0181E0E816F10481F48BEA92E052
:1002F00066E371E00E949C050E9419018EEF91E077
:1003000067E571E00E947C050E94460101301105FD
:1003100081F48BEA92E068E671E00E949C050E94FD
:1003200019018EEF91E06AE871E00E947C050E945D
:100330004601C130D10581F48BEA92E06CE971E0AD
:100340000E949C050E9419018EEF91E06FEB71E015
:100350000E947C050E94460164EF71E080E090E01D
:100360000E943102DF91CF911F910F91FF90EF908A
:10037000089581E090E00E94D600089580E090E02A
:100380000E94D60008951F920F920FB60F9211246B
:100390002F933F938F939F93AF93BF9380911E02B0
:1003A00090911F02A0912002B0912102309122026F
:1003B0000196A11DB11D232F2D5F2D3720F02D5744
:1003C0000196A11DB11D2093220280931E029093DD
:1003D0001F02A0932002B093210280911A029091F3
:1003E0001B02A0911C02B0911D020196A11DB11D1E
:1003F00080931A0290931B02A0931C02B0931D02DB
:10040000BF91AF919F918F913F912F910F900FBE10
:100410000F901F9018959FB7F89420911A02309171
:100420001B0240911C0250911D0286B5A89B06C07C
:100430008F3F21F02F5F3F4F4F4F5F4F9FBF542F94
:10044000432F322F2227280F311D411D511D82E0DD
:10045000220F331F441F551F8A95D1F7B901CA01D6
:100460000895EF92FF920F931F93CF93DF937B0139
:100470008C010E940B02EB010FC00E940B026C1B4F
:100480007D0B83E0683E780738F00894E108F108B6
:1004900001091109C851DC4FE114F10401051105EE
:1004A00061F7DF91CF911F910F91FF90EF90089529
:1004B000789484B5826084BD84B5816084BD85B53F
:1004C000826085BD85B5816085BDEEE6F0E0808106
:1004D00081608083E1E8F0E0108280818260808327
:1004E000808181608083E0E8F0E0808181608083AA
:1004F000E1EBF0E0808184608083E0EBF0E08081DC
:1005000081608083EAE7F0E080818460808380817D
:100510008260808380818160808380818068808325
:100520001092C1000895833071F0843028F4813036
:10053000A1F0823021F514C08630B1F08730D1F0BF
:100540008430E9F404C0809180008F7703C08091EB
:1005500080008F7D80938000089584B58F7702C0DE
:1005600084B58F7D84BD08958091B0008F7780938E
:10057000B00008958091B0008F7D8093B000089501
:1005800090E0FC01E656FF4F2491FC01EA57FF4F33
:10059000E491EE23C1F0F0E0EE0FFF1FE859FF4FAA
:1005A00085919491DC01662341F49FB7F8948C9176
:1005B000209582238C939FBF08959FB7F8948C91C8
:1005C000822B8C939FBF08950F931F93DF93CF933C
:1005D0000F92CDB7DEB7282F30E0F901E255FF4F7B
:1005E0008491F901E656FF4F14912A573F4FF901C4
:1005F00004910023D9F0882321F069830E9493029B
:100600006981E02FF0E0EE0FFF1FEE58FF4F85915C
:100610009491DC019FB7F894662321F48C91109596
:10062000812302C08C91812B8C939FBF0F90CF911F
:10063000DF911F910F9108950F931F93282F30E0A2
:10064000F901E255FF4F8491F901E656FF4F0491FD
:100650002A573F4FF9011491112391F0882311F08B
:100660000E949302E12FF0E0EE0FFF1FE458FF4FCE
:1006700085919491DC018C91802321E030E011F48C
:1006800020E030E0C9011F910F910895FC0184859D
:100690009585FC01E05CFF4F208131818E5B9F4F8F
:1006A000FC0180819181281B390B2F733070C901A7
:1006B0000895FC0184859585FC01E05CFF4F408135
:1006C0005181FC01EE5BFF4F2081318142175307BE
:1006D00041F00190F081E02DE80FF91F208130E01A
:1006E00002C02FEF3FEFC9010895FC018485958575
:1006F000FC01E05CFF4F40815181FC01EE5BFF4F4C
:10070000208131814217530771F0A081B181A80F78
:10071000B91F2C918081918101968F739070918384
:10072000808330E002C02FEF3FEFC9010895DC0164
:100730001E968D919C911F97FC01E05CFF4F8E5B94
:100740009F4F40815181DC012D913C9111974217BF
:100750005307B9F708951F93FC01162F2685378597
:10076000D901A05CBF4F8D919C91019660E470E02F
:100770000E94F208D901AE5BBF4F4D915C91119779
:1007800084179507D1F3D901A05CBF4F0D90BC91A0
:10079000A02DA20FB31F1C93A685B785A05CBF4FE9
:1007A00011969C938E93A689B7892C9181E090E055
:1007B000058C02C0880F991F0A94E2F7282B2C930E
:1007C00081E090E01F910895FB01E05CFF4F2081E4
:1007D00031812F5F3F4F2F733070DB01AE5BBF4F16
:1007E0004D915C9111972417350739F0A081B181A3
:1007F000A60FB71F8C9331832083089508951F920D
:100800000F920FB60F9211242F933F934F935F9344
:100810006F937F938F939F93AF93BF93EF93FF93C8
:100820008091C60063E272E00E94E403FF91EF91C1
:10083000BF91AF919F918F917F916F915F914F91F8
:100840003F912F910F900FBE0F901F9018958BEA3C
:1008500092E00E944603009711F00E94FE03089563
:100860001F920F920FB60F9211242F933F935F9315
:100870006F937F938F939F93AF93BF93EF93FF9368
:100880002091A7023091A8028091A9029091AA021A
:100890002817390731F48091C1008F7D8093C10002
:1008A00016C0E091A902F091AA02E959FD4F2081FA
:1008B0008091A9029091AA02019660E470E00E94E2
:1008C000F2089093AA028093A9022093C600FF9198
:1008D000EF91BF91AF919F918F917F916F915F91B8
:1008E0003F912F910F900FBE0F901F901895DF92A0
:1008F000EF92FF920F931F93CF93DF93EC017A0156
:100900008B01DD24D394403081EE580780E06807E6
:1009100080E0780749F4DD24EC89FD89108260E8E5
:1009200074E88EE190E00FC0EC89FD8981E090E0F1
:100930000E8C02C0880F991F0A94E2F7808360E052
:1009400079E08DE390E0A80197010E94050921500C
:10095000304040405040569547953795279580E167
:100960002030380710F0DD20B1F6E889F9893083AE
:10097000EA89FB892083EE89FF89408181E090E04C
:100980009C010A8C02C0220F331F0A94E2F7422B0B
:100990004083EE89FF8940819C010B8C02C0220FAD
:1009A000331F0A94E2F7422B4083EE89FF8940818E
:1009B0009C010C8C02C0220F331F0A94E2F7422BD9
:1009C0004083EE89FF8920810D8C02C0880F991F1A
:1009D0000A94E2F7809582238083DF91CF911F9163
:1009E0000F91FF90EF90DF9008951092AE02109259
:1009F000AD0288EE93E0A0E0B0E08093AF02909368
:100A0000B002A093B102B093B202EDEAF2E081EE3F
:100A100091E09293829383E292E09587848787E6C0
:100A200092E09787868785EC90E0918B808B84ECB1
:100A300090E0938B828B80EC90E0958B848B81ECA3
:100A400090E0978B868B86EC90E0918F808F84E08E
:100A5000828F83E0838F87E0848F85E0858F81E0BC
:100A6000868F0895CF93DF930E9458020E94E8007A
:100A7000C7E2D4E00E9460012097E1F30E942704BE
:100A8000F9CFCF92DF92EF92FF920F931F93CF9304
:100A9000DF936C017B018A01C0E0D0E00FC0D70179
:100AA0006D917D01D601ED91FC910190F081E02DD9
:100AB000C6010995C80FD91F015010400115110535
:100AC00071F7CE01DF91CF911F910F91FF90EF90C1
:100AD000DF90CF900895DB010D900020E9F7AD0184
:100AE00041505040461B570BDC01ED91FC910280B8
:100AF000F381E02D099508950E946B050895DC01AE
:100B0000ED91FC910190F081E02D099508950F93EE
:100B10001F93CF93DF93EC016DE00E947F058C0162
:100B2000CE016AE00E947F05080F191FC801DF91FE
:100B3000CF911F910F9108950F931F93CF93DF9340
:100B4000EC010E946B058C01CE010E948705080F05
:100B5000191FC801DF91CF911F910F910895209126
:100B6000CA023091CB0228173907B1F490910D03D6
:100B700080910C03981781F0E0910D03F0E0E453AD
:100B8000FD4F208180910D0390E001968F7390704E
:100B900080930D0330E002C02FEF3FEFC9010895AD
:100BA0002091CA023091CB022817390779F480913D
:100BB0000C0320910D0390E0805C9F4F821B9109F4
:100BC00060E470E00E94F2089C0102C020E030E086
:100BD000C90108952091CA023091CB022817390724
:100BE00049F48FB7F89410920C0390910C039093F2
:100BF0000D038FBF08952091CA023091CB022817B0
:100C0000390781F490910D0380910C03981751F0EE
:100C1000E0910D03F0E0E453FD4F2081332727FDE1
:100C2000309502C02FEF3FEFC901089520E00197F2
:100C30002FEF8F3F9207D9F70895FC018091CA02E8
:100C40009091CB028E179F0791F0838D8E7F838FBB
:100C50008FB7F89410920C0390910C0390930D03AE
:100C6000F093CB02E093CA028FBF81E0089580E049
:100C70000895EF92FF920F931F93CF93DF93EC01B0
:100C80008B8DEE85FF859D8581FF04C08081892342
:100C900029F445C08081892309F041C08B899C8952
:100CA0000E94160608E010E0EE24E394FF248D89EC
:100CB0009E890E941606EE85FF8580819D85892389
:100CC00011F0FE2803C08E2D8095F822EE0C015005
:100CD000104069F78F89988D0E9416068B8D81FDD3
:100CE000F09480910C0320910D0390E001968F7396
:100CF000907030E08217930779F0E0910C03F0E0F8
:100D0000E453FD4FF08280910C0390E001968F73C5
:100D1000907080930C0303C08B8D81608B8FDF916B
:100D2000CF911F910F91FF90EF900895FC01A18941
:100D3000B2899089662329F42C91892F809582238A
:100D400002C08C91892B8C930895DF92EF92FF92D1
:100D50000F931F93CF93DF93EC01E62E898D9A8D2D
:100D6000009739F481E090E09B838A8320E030E0B3
:100D70004BC0DFB6F8948B8D61E081FF60E0CE015F
:100D80000E949606898D9A8D05960E9416068B8D77
:100D900081FF19C008E010E0FF24F3948F2D8E210D
:100DA00019F0CE0160E002C0CE0161E00E9496061B
:100DB000898D9A8D0E941606FF0C0150104071F724
:100DC000CE0160E018C008E010E0FF24F3948F2DFE
:100DD0008E2119F0CE0161E002C0CE0160E00E94D8
:100DE0009606898D9A8D0E941606FF0C01501040C0
:100DF00071F7CE0161E00E949606DFBE898D9A8D63
:100E00000E94160621E030E0C901DF91CF911F91C9
:100E10000F91FF90EF90DF9008958091CA0290911A
:100E2000CB02009711F00E94390608951F920F928D
:100E30000FB60F9211242F933F934F935F936F93AD
:100E40007F938F939F93AF93BF93EF93FF930E94F2
:100E50000D07FF91EF91BF91AF919F918F917F917E
:100E60006F915F914F913F912F910F900FBE0F9017
:100E70001F9018951F920F920FB60F9211242F9367
:100E80003F934F935F936F937F938F939F93AF9312
:100E9000BF93EF93FF930E940D07FF91EF91BF91D6
:100EA000AF919F918F917F916F915F914F913F9102
:100EB0002F910F900FBE0F901F9018951F920F92B9
:100EC0000FB60F9211242F933F934F935F936F931D
:100ED0007F938F939F93AF93BF93EF93FF930E9462
:100EE0000D07FF91EF91BF91AF919F918F917F91EE
:100EF0006F915F914F913F912F910F900FBE0F9087
:100F00001F9018951F93CF93DF93EC01162F862F18
:100F100061E00E94C002812F61E00E94E402812F03
:100F200090E0FC01E656FF4FE491E88BFC01EA57A4
:100F3000FF4FE491F0E0EE0FFF1FEE58FF4F859159
:100F40009491898B9A8BDF91CF911F9108951F9374
:100F5000CF93DF93EC01162F862F60E00E94C00232
:100F60008B8D81FD04C0812F61E00E94E4021C870B
:100F7000812F90E0FC01E656FF4FE491ED87FC01E4
:100F8000EA57FF4FE491F0E0EE0FFF1FE458FF4FE8
:100F9000859194918E879F87DF91CF911F910895BE
:100FA0001F93CF93DF93EC01162F1B821A8288EEDA
:100FB00093E0A0E0B0E08C839D83AE83BF8381EF9C
:100FC00091E0998388831C8A1B8A1E8A1D8A188E49
:100FD0001F8A1A8E198E8B8D2170220F8C7F822B87
:100FE0008B8FCE01642F0E948207CE01612F0E9459
:100FF000A707DF91CF911F910895EF92FF920F9372
:101000001F93CF93DF93EC017A018B011A8E198E17
:10101000188E1F8A1E8A1D8A1C8A1B8A40E050E097
:101020009A01220F331F240F351F220F331F220F67
:10103000331FF901EE53FF4F85919591A591B4911E
:101040008E159F05A007B107E9F4F901EA53FF4F98
:10105000859194918B8B9C8BF901E853FF4F85917F
:1010600094918D8B9E8BF901E653FF4F859194915E
:101070008F8B988F24533F4FF90185919491898FDD
:101080009A8F06C04F5F5F4F4C30510509F0C8CFB3
:101090008F89988D009709F448C09C85963108F097
:1010A00040C020916800983020F09E3020F082E00F
:1010B00003C084E001C081E0822B809368004C85EE
:1010C000483048F04E3060F04631C8F1A0E0B0E062
:1010D000E0E0F0E009C0ADE6B0E0EDE6F0E004C02D
:1010E000ABE6B0E0EBE6F0E05081483040F481E060
:1010F00090E002C0880F991F4A95E2F710C0242F94
:1011000030E04E3018F42850304002C02E503040AD
:1011100081E090E002C0880F991F2A95E2F7852BA5
:101120008C93898D9A8D0E941606CE010E941D0611
:10113000DF91CF911F910F91FF90EF900895ACE652
:10114000B0E0ECE6F0E0D0CFFC014485463150F54C
:10115000483028F04E3030F0ECE6F0E005C0EDE627
:10116000F0E002C0EBE6F0E05081483040F481E06E
:1011700090E002C0880F991F4A95E2F710C0242F13
:1011800030E04E3018F42850304002C02E5030402D
:1011900081E090E002C0880F991F2A95E2F78095C0
:1011A00085238083089521EF31E0FC013183208382
:1011B0000E94A4080895F8940C942D09AA1BBB1B47
:1011C00051E107C0AA1FBB1FA617B70710F0A61B47
:1011D000B70B881F991F5A95A9F780959095BC0168
:1011E000CD01089597FB092E07260AD077FD04D07C
:1011F000E5DF06D000201AF4709561957F4F0895C1
:10120000F6F7909581959F4F0895A1E21A2EAA1B9B
:10121000BB1BFD010DC0AA1FBB1FEE1FFF1FA217A6
:10122000B307E407F50720F0A21BB30BE40BF50BA3
:10123000661F771F881F991F1A9469F7609570952C
:10124000809590959B01AC01BD01CF010895EE0FF3
:10125000FF1F0590F491E02D099411E0C6E5D1E05F
:1012600004C0FE010E9429092296C835D107C9F79A
:04127000F894FFCF20
:101274005374617274696E6720534D353130304256
:1012840020436F6D6D756E69636174696F6E2E2E88
:101294002E0041542B434D47463D310041542B43CE
:1012A4004D47533D000052454420776173207072CE
:1012B40065737365642E2E2E53656E64696E6720A4
:1012C4007478742E2E2E005245442077617320705A
:1012D4007265737365642100424C554520776173D0
:1012E40020707265737365642E2E2E53656E646967
:1012F4006E67207478742E2E2E00424C554520774C
:101304006173207072657373656421005748495492
:10131400452077617320707265737365642E2E2E79
:1013240053656E64696E67207478742E2E2E005790
:1013340048495445207761732070726573736564FE
:101344002100323033373637363738390000000061
:1013540000AB0341054603750359039703000000DE
:0E13640000A5064105D005AF05FB05EA050012
:00000001FF
