:100000000C94AC000C94D4000C94D4000C942A06EC
:100010000C944E060C9472060C94D4000C94D400EC
:100020000C94D4000C94D4000C94D4000C94D40000
:100030000C94D4000C94D4000C94D4000C94D400F0
:100040000C948A010C94D4000C9413030C94440374
:100050000C94D4000C94D4000C94D4000C94D400D0
:100060000C94D4000C94D40000C2010001001100D3
:1000700011000C0000E100000A002500250021000D
:10008000009600001900390039003600127A00008D
:100090001F004600460044008070000022004D0012
:1000A0004D004A00004B00003600750075007200DC
:1000B000403800004A009C009C0099008025000008
:1000C0007200EC00EC00E900C0120000E900DA0167
:1000D000DA01D70160090000D701B603B603B30304
:1000E000B0040000B3036E076E076B072C0100001D
:1000F000DC0EC11DC11DBE1D000000002400270034
:100100002A0000000000250028002B00000000004D
:100110002300260029000404040404040404020249
:100120000202020203030303030301020408102076
:100130004080010204081020010204081020000081
:100140000007000201000003040600000000000098
:10015000000080010904850111241FBECFEFD8E003
:10016000DEBFCDBF11E0A0E0B1E0EEEAF1E102C0F8
:1001700005900D92A03AB107D9F712E0A0EAB1E0DC
:1001800001C01D92A03BB107E1F711E0C6E5D1E047
:1001900004C02297FE010E94C608C235D107C9F7E4
:1001A0000E9446040C9478080C940000813091055C
:1001B00041F480EA91E062E043E020E00E94E4063E
:1001C0000895009721F480EA91E00E94E7070895DE
:1001D000CF93DF93CDE4D2E0CE0140E855E260E07A
:1001E00070E00E948B0380EA91E040E855E260E015
:1001F00070E00E941107CE0160E071E00E94B0043F
:1002000068EB78E880E090E00E94F801DF91CF9100
:10021000089580EA91E062E271E00E94B0048DE40A
:1002200092E062E271E00E94B00480EA91E06CE248
:1002300071E00E94900480EA91E062E20E94B905B8
:1002400080EA91E065E771E00E94900480EA91E025
:1002500062E20E94B90580EA91E065E371E00E94E4
:10026000B0048DE492E06CE271E00E9490048DE4B1
:1002700092E062E20E94BF028DE492E065E771E0E5
:100280000E9490048DE492E062E20E94BF028DE43D
:1002900092E065E371E00E94B00464EF71E080E0F9
:1002A00090E00E94F80180EA91E066E371E00E942C
:1002B000900480EA91E06AE10E94B90580EA91E049
:1002C00065E371E00E94B0048DE492E066E371E0C2
:1002D0000E9490048DE492E06AE10E94BF028DE4E6
:1002E00092E065E371E00E94B00468E97AE380E09F
:1002F00090E00E94F80161E070E080E090E0F9CFCA
:1003000081E090E00E94D600089580E090E00E9495
:10031000D60008951F920F920FB60F9211242F93BB
:100320003F938F939F93AF93BF938091C001909120
:10033000C101A091C201B091C3013091C4010196E5
:10034000A11DB11D232F2D5F2D3720F02D570196B4
:10035000A11DB11D2093C4018093C0019093C101E0
:10036000A093C201B093C3018091BC019091BD01E3
:10037000A091BE01B091BF010196A11DB11D809356
:10038000BC019093BD01A093BE01B093BF01BF918A
:10039000AF919F918F913F912F910F900FBE0F9032
:1003A0001F9018959FB7F8942091BC013091BD0122
:1003B0004091BE015091BF0186B5A89B06C08F3FFA
:1003C00021F02F5F3F4F4F4F5F4F9FBF542F432F61
:1003D000322F2227280F311D411D511D82E0220F8F
:1003E000331F441F551F8A95D1F7B901CA010895DB
:1003F000EF92FF920F931F93CF93DF937B018C01BA
:100400000E94D201EB010FC00E94D2016C1B7D0B38
:1004100083E0683E780738F00894E108F1080109A4
:100420001109C851DC4FE114F1040105110561F710
:10043000DF91CF911F910F91FF90EF9008957894E5
:1004400084B5826084BD84B5816084BD85B58260D9
:1004500085BD85B5816085BDEEE6F0E08081816077
:100460008083E1E8F0E01082808182608083808177
:1004700081608083E0E8F0E0808181608083E1EB4F
:10048000F0E0808184608083E0EBF0E08081816037
:100490008083EAE7F0E080818460808380818260ED
:1004A00080838081816080838081806880831092D6
:1004B000C1000895FC0184859585FC01E05CFF4F37
:1004C000208131818E5B9F4FFC0180819181281BAF
:1004D000390B2F733070C9010895FC01848595850F
:1004E000FC01E05CFF4F40815181FC01EE5BFF4F5E
:1004F000208131814217530741F00190F081E02DB6
:10050000E80FF91F208130E002C02FEF3FEFC90153
:100510000895FC0184859585FC01E05CFF4F4081D6
:100520005181FC01EE5BFF4F20813181421753075F
:1005300071F0A081B181A80FB91F2C9180819181A8
:1005400001968F7390709183808330E002C02FEF0B
:100550003FEFC9010895DC011E968D919C911F9774
:10056000FC01E05CFF4F8E5B9F4F40815181DC01BD
:100570002D913C91119742175307B9F708951F9396
:10058000FC01162F26853785D901A05CBF4F8D91C0
:100590009C91019660E470E00E948F08D901AE5BE7
:1005A000BF4F4D915C91119784179507D1F3D901F5
:1005B000A05CBF4F0D90BC91A02DA20FB31F1C9348
:1005C000A685B785A05CBF4F11969C938E93A68994
:1005D000B7892C9181E090E0058C02C0880F991FAB
:1005E0000A94E2F7282B2C9381E090E01F91089564
:1005F000FB01E05CFF4F208131812F5F3F4F2F7364
:100600003070DB01AE5BBF4F4D915C9111972417A9
:10061000350739F0A081B181A60FB71F8C933183C4
:100620002083089508951F920F920FB60F92112400
:100630002F933F934F935F936F937F938F939F93EA
:10064000AF93BF93EF93FF938091C60065EC71E089
:100650000E94F802FF91EF91BF91AF919F918F910E
:100660007F916F915F914F913F912F910F900FBEAE
:100670000F901F9018958DE492E00E945A02009707
:1006800011F00E94120308951F920F920FB60F925D
:1006900011242F933F935F936F937F938F939F9337
:1006A000AF93BF93EF93FF932091490230914A0299
:1006B00080914B0290914C022817390731F48091B8
:1006C000C1008F7D8093C10016C0E0914B02F09174
:1006D0004C02E75FFD4F208180914B0290914C02CC
:1006E000019660E470E00E948F0890934C02809322
:1006F0004B022093C600FF91EF91BF91AF919F9164
:100700008F917F916F915F913F912F910F900FBECD
:100710000F901F901895DF92EF92FF920F931F9307
:10072000CF93DF93EC017A018B01DD24D394403029
:1007300081EE580780E0680780E0780749F4DD24FF
:10074000EC89FD89108260E874E88EE190E00FC0CA
:10075000EC89FD8981E090E00E8C02C0880F991F22
:100760000A94E2F7808360E079E08DE390E0A801ED
:1007700097010E94A20821503040404050405695B9
:1007800047953795279580E12030380710F0DD2018
:10079000B1F6E889F9893083EA89FB892083EE89FB
:1007A000FF89408181E090E09C010A8C02C0220F09
:1007B000331F0A94E2F7422B4083EE89FF89408180
:1007C0009C010B8C02C0220F331F0A94E2F7422BCC
:1007D0004083EE89FF8940819C010C8C02C0220F6E
:1007E000331F0A94E2F7422B4083EE89FF89208170
:1007F0000D8C02C0880F991F0A94E2F7809582231E
:100800008083DF91CF911F910F91FF90EF90DF9048
:1008100008951092500210924F0288EE93E0A0E0EB
:10082000B0E08093510290935202A0935302B09390
:100830005402EFE4F2E084E891E09293829385EC35
:1008400091E09587848789E092E09787868785EC99
:1008500090E0918B808B84EC90E0938B828B80EC8A
:1008600090E0958B848B81EC90E0978B868B86EC67
:1008700090E0918F808F84E0828F83E0838F87E088
:10088000848F85E0858F81E0868F0895CF93DF93F5
:100890000E941F020E94E800CBE3D3E00E940901FE
:1008A0002097E1F30E943B03F9CFCF92DF92EF92C2
:1008B000FF920F931F93CF93DF936C017B018A010B
:1008C000C0E0D0E00FC0D7016D917D01D601ED9160
:1008D000FC910190F081E02DC6010995C80FD91F48
:1008E000015010400115110571F7CE01DF91CF9134
:1008F0001F910F91FF90EF90DF90CF900895DB0153
:100900000D900020E9F7AD0141505040461B570BB8
:10091000DC01ED91FC910280F381E02D09950895B1
:100920000E947F040895DC01ED91FC910190F0811B
:10093000E02D099508950F931F93CF93DF93EC015A
:100940006DE00E9493048C01CE016AE00E94930442
:10095000080F191FC801DF91CF911F910F910895C2
:100960000F931F93CF93DF93EC010E947F048C01C0
:10097000CE010E949B04080F191FC801DF91CF917F
:100980001F910F91089520916C0230916D022817EC
:100990003907B1F49091AF028091AE02981781F0BF
:1009A000E091AF02F0E0E259FD4F20818091AF026B
:1009B00090E001968F7390708093AF0230E002C098
:1009C0002FEF3FEFC901089520916C0230916D0225
:1009D0002817390779F48091AE022091AF0290E098
:1009E000805C9F4F821B910960E470E00E948F0839
:1009F0009C0102C020E030E0C901089520916C0202
:100A000030916D022817390749F48FB7F894109286
:100A1000AE029091AE029093AF028FBF08952091E5
:100A20006C0230916D022817390781F49091AF0262
:100A30008091AE02981751F0E091AF02F0E0E259D8
:100A4000FD4F2081332727FD309502C02FEF3FEF68
:100A5000C901089520E001972FEF8F3F9207D9F742
:100A60000895FC0180916C0290916D028E179F0792
:100A700091F0838D8E7F838F8FB7F8941092AE02A2
:100A80009091AE029093AF02F0936D02E0936C02EE
:100A90008FBF81E0089580E00895EF92FF920F9359
:100AA0001F93CF93DF93EC018B8DEE85FF859D85A2
:100AB00081FF04C08081892329F445C08081892376
:100AC00009F041C08B899C890E942A0508E010E04A
:100AD000EE24E394FF248D899E890E942A05EE85E9
:100AE000FF8580819D85892311F0FE2803C08E2D0E
:100AF0008095F822EE0C0150104069F78F89988D8F
:100B00000E942A058B8D81FDF0948091AE02209188
:100B1000AF0290E001968F73907030E082179307D8
:100B200079F0E091AE02F0E0E259FD4FF082809161
:100B3000AE0290E001968F7390708093AE0203C076
:100B40008B8D81608B8FDF91CF911F910F91FF90E3
:100B5000EF900895FC01A189B2899089662329F458
:100B60002C91892F8095822302C08C91892B8C93A4
:100B70000895DF92EF92FF920F931F93CF93DF932D
:100B8000EC01E62E898D9A8D009739F481E090E092
:100B90009B838A8320E030E04BC0DFB6F8948B8DD6
:100BA00061E081FF60E0CE010E94AA05898D9A8DE7
:100BB00005960E942A058B8D81FF19C008E010E080
:100BC000FF24F3948F2D8E2119F0CE0160E002C036
:100BD000CE0161E00E94AA05898D9A8D0E942A05A6
:100BE000FF0C0150104071F7CE0160E018C008E022
:100BF00010E0FF24F3948F2D8E2119F0CE0161E0D7
:100C000002C0CE0160E00E94AA05898D9A8D0E94E3
:100C10002A05FF0C0150104071F7CE0161E00E94DF
:100C2000AA05DFBE898D9A8D0E942A0521E030E059
:100C3000C901DF91CF911F910F91FF90EF90DF904D
:100C4000089580916C0290916D02009711F00E94BE
:100C50004D0508951F920F920FB60F9211242F93F6
:100C60003F934F935F936F937F938F939F93AF9334
:100C7000BF93EF93FF930E942106FF91EF91BF91E5
:100C8000AF919F918F917F916F915F914F913F9124
:100C90002F910F900FBE0F901F9018951F920F92DB
:100CA0000FB60F9211242F933F934F935F936F933F
:100CB0007F938F939F93AF93BF93EF93FF930E9484
:100CC0002106FF91EF91BF91AF919F918F917F91FD
:100CD0006F915F914F913F912F910F900FBE0F90A9
:100CE0001F9018951F920F920FB60F9211242F93F9
:100CF0003F934F935F936F937F938F939F93AF93A4
:100D0000BF93EF93FF930E942106FF91EF91BF9154
:100D1000AF919F918F917F916F915F914F913F9193
:100D20002F910F900FBE0F901F9018951F93CF9388
:100D3000DF93EC01162F862F61E00E941C08812FA3
:100D400061E00E944008812F90E0FC01E65DFE4FCB
:100D5000E491E88BFC01EA5EFE4FE491F0E0EE0FD7
:100D6000FF1FEE5FFE4F85919491898B9A8BDF91E7
:100D7000CF911F9108951F93CF93DF93EC01162F0E
:100D8000862F60E00E941C088B8D81FD04C0812F9E
:100D900061E00E9440081C87812F90E0FC01E65D25
:100DA000FE4FE491ED87FC01EA5EFE4FE491F0E036
:100DB000EE0FFF1FE45FFE4F859194918E879F8712
:100DC000DF91CF911F9108951F93CF93DF93EC0193
:100DD000162F1B821A8288EE93E0A0E0B0E08C838D
:100DE0009D83AE83BF8384E991E0998388831C8AC5
:100DF0001B8A1E8A1D8A188E1F8A1A8E198E8B8D49
:100E00002170220F8C7F822B8B8FCE01642F0E944A
:100E10009606CE01612F0E94BB06DF91CF911F91F4
:100E20000895EF92FF920F931F93CF93DF93EC01FE
:100E30007A018B011A8E198E188E1F8A1E8A1D8ABE
:100E40001C8A1B8A40E050E09A01220F331F240FB6
:100E5000351F220F331F220F331FF901E859FF4FAF
:100E600085919591A591B4918E159F05A007B10725
:100E7000E9F4F901E459FF4F859194918B8B9C8B98
:100E8000F901E259FF4F859194918D8B9E8BF90169
:100E9000E059FF4F859194918F8B988F2E583F4F3B
:100EA000F90185919491898F9A8F06C04F5F5F4FAA
:100EB0004C30510509F0C8CF8F89988D009709F4FF
:100EC00048C09C85963108F040C020916800983059
:100ED00020F09E3020F082E003C084E001C081E079
:100EE000822B809368004C85483048F04E3060F08B
:100EF0004631C8F1A0E0B0E0E0E0F0E009C0ADE6C6
:100F0000B0E0EDE6F0E004C0ABE6B0E0EBE6F0E028
:100F10005081483040F481E090E002C0880F991F72
:100F20004A95E2F710C0242F30E04E3018F42850D4
:100F3000304002C02E50304081E090E002C0880F67
:100F4000991F2A95E2F7852B8C93898D9A8D0E94A3
:100F50002A05CE010E943105DF91CF911F910F919B
:100F6000FF90EF900895ACE6B0E0ECE6F0E0D0CF73
:100F7000FC014485463150F5483028F04E3030F0C1
:100F8000ECE6F0E005C0EDE6F0E002C0EBE6F0E0F4
:100F90005081483040F481E090E002C0880F991FF2
:100FA0004A95E2F710C0242F30E04E3018F4285054
:100FB000304002C02E50304081E090E002C0880FE7
:100FC000991F2A95E2F7809585238083089524E967
:100FD00031E0FC01318320830E94B80708958330FB
:100FE00071F0843028F48130A1F0823021F514C0F2
:100FF0008630B1F08730D1F08430E9F404C08091BC
:1010000080008F7703C0809180008F7D8093800067
:10101000089584B58F7702C084B58F7D84BD08950F
:101020008091B0008F778093B00008958091B000D8
:101030008F7D8093B000089590E0FC01E65DFE4F47
:101040002491FC01EA5EFE4FE491EE23C1F0F0E052
:10105000EE0FFF1FE850FF4F85919491DC0166234E
:1010600041F49FB7F8948C91209582238C939FBF75
:1010700008959FB7F8948C91822B8C939FBF08950D
:101080000F931F93DF93CF930F92CDB7DEB7282F27
:1010900030E0F901E25CFE4F8491F901E65DFE4F1C
:1010A00014912A5E3E4FF90104910023D9F0882360
:1010B00021F069830E94EF076981E02FF0E0EE0FD5
:1010C000FF1FEE5FFE4F85919491DC019FB7F8946E
:1010D000662321F48C911095812302C08C91812B81
:1010E0008C939FBF0F90CF91DF911F910F91089527
:1010F000F8940C94CA08AA1BBB1B51E107C0AA1F95
:10110000BB1FA617B70710F0A61BB70B881F991FA8
:101110005A95A9F780959095BC01CD01089597FB4C
:10112000092E07260AD077FD04D0E5DF06D000207F
:101130001AF4709561957F4F0895F6F79095819513
:101140009F4F0895A1E21A2EAA1BBB1BFD010DC0E3
:10115000AA1FBB1FEE1FFF1FA217B307E407F50767
:1011600020F0A21BB30BE40BF50B661F771F881F43
:10117000991F1A9469F760957095809590959B01D9
:10118000AC01BD01CF010895EE0FFF1F0590F49152
:10119000E02D099411E0C6E5D1E004C0FE010E94F3
:0E11A000C6082296C835D107C9F7F894FFCFCC
:1011AE005374617274696E6720534D35313030421D
:1011BE0020436F6D6D756E69636174696F6E2E2E4F
:1011CE002E0041542B434D47463D310041542B4395
:1011DE004D47533D0000546865792063616C6C2067
:1011EE006D652074686520636F756E742E2E2E20CB
:1011FE00626563617573652049206C696B65207447
:10120E006F20636F756E74212041682068612068BD
:10121E00612068610032303337363736373839005F
:10122E0000000000BF0255045A0289026D02AB0293
:10123E0000000000B9055504E404C3040F05FE04C4
:00000001FF
